:100000000C9434000C943E000C943E000C943E0082
:100010000C943E000C943E000C943E000C943E0068
:100020000C943E000C943E000C943E000C943E0058
:100030000C943E000C943E000C943E000C943E0048
:100040000C943E000C943E000C943E000C943E0038
:100050000C943E000C943E000C943E000C943E0028
:100060000C943E000C943E0011241FBECFEFD8E04C
:10007000DEBFCDBF0E9440000C946E000C940000C7
:1000800018B881E087B91AB886E08BB991E089B1D8
:100090008670816098B90000000000000000813087
:1000A00009F418B8000000000000833009F418B803
:1000B0000000000000000000853009F418B80000BE
:1000C00000000000873009F418B8000000000000AC
:1000D00000000000000000000000D9CFF894FFCF1E
:00000001FF
